{
  "contractName": "VotingPower",
  "abi": [
    {
      "inputs": [
        {
          "internalType": "address",
          "name": "token_",
          "type": "address"
        }
      ],
      "stateMutability": "nonpayable",
      "type": "constructor"
    },
    {
      "anonymous": false,
      "inputs": [
        {
          "indexed": true,
          "internalType": "address",
          "name": "user",
          "type": "address"
        },
        {
          "indexed": false,
          "internalType": "uint256",
          "name": "amount",
          "type": "uint256"
        }
      ],
      "name": "Staked",
      "type": "event"
    },
    {
      "anonymous": false,
      "inputs": [
        {
          "indexed": true,
          "internalType": "address",
          "name": "user",
          "type": "address"
        },
        {
          "indexed": false,
          "internalType": "uint256",
          "name": "amount",
          "type": "uint256"
        }
      ],
      "name": "Unstaked",
      "type": "event"
    },
    {
      "inputs": [
        {
          "internalType": "address",
          "name": "who",
          "type": "address"
        }
      ],
      "name": "votingPower",
      "outputs": [
        {
          "internalType": "uint256",
          "name": "",
          "type": "uint256"
        }
      ],
      "stateMutability": "view",
      "type": "function"
    },
    {
      "inputs": [
        {
          "internalType": "uint256",
          "name": "amount",
          "type": "uint256"
        }
      ],
      "name": "stake",
      "outputs": [],
      "stateMutability": "nonpayable",
      "type": "function"
    },
    {
      "inputs": [
        {
          "internalType": "uint256",
          "name": "amount",
          "type": "uint256"
        }
      ],
      "name": "unstake",
      "outputs": [],
      "stateMutability": "nonpayable",
      "type": "function"
    },
    {
      "inputs": [
        {
          "internalType": "address",
          "name": "addr",
          "type": "address"
        }
      ],
      "name": "totalStakedBy",
      "outputs": [
        {
          "internalType": "uint256",
          "name": "",
          "type": "uint256"
        }
      ],
      "stateMutability": "view",
      "type": "function"
    },
    {
      "inputs": [],
      "name": "totalStaked",
      "outputs": [
        {
          "internalType": "uint256",
          "name": "",
          "type": "uint256"
        }
      ],
      "stateMutability": "view",
      "type": "function"
    },
    {
      "inputs": [],
      "name": "token",
      "outputs": [
        {
          "internalType": "address",
          "name": "",
          "type": "address"
        }
      ],
      "stateMutability": "view",
      "type": "function"
    }
  ],
  "bytecode": "0x60806040523480156200001157600080fd5b50604051620014a0380380620014a083398181016040528101906200003791906200009e565b600160008190555080600160006101000a81548173ffffffffffffffffffffffffffffffffffffffff021916908373ffffffffffffffffffffffffffffffffffffffff1602179055505062000118565b6000815190506200009881620000fe565b92915050565b600060208284031215620000b157600080fd5b6000620000c18482850162000087565b91505092915050565b6000620000d782620000de565b9050919050565b600073ffffffffffffffffffffffffffffffffffffffff82169050919050565b6200010981620000ca565b81146200011557600080fd5b50565b61137880620001286000396000f3fe608060405234801561001057600080fd5b50600436106100625760003560e01c80632e17de7814610067578063817b1cd214610083578063878c6dad146100a1578063a694fc3a146100d1578063c07473f6146100ed578063fc0c546a1461011d575b600080fd5b610081600480360381019061007c9190610c9d565b61013b565b005b61008b610396565b6040516100989190611000565b60405180910390f35b6100bb60048036038101906100b69190610c4b565b6103a0565b6040516100c89190611000565b60405180910390f35b6100eb60048036038101906100e69190610c9d565b6103e9565b005b61010760048036038101906101029190610c4b565b61072f565b6040516101149190611000565b60405180910390f35b610125610754565b6040516101329190610e83565b60405180910390f35b60026000541415610181576040517f08c379a000000000000000000000000000000000000000000000000000000000815260040161017890610fe0565b60405180910390fd5b6002600081905550600081116101cc576040517f08c379a00000000000000000000000000000000000000000000000000000000081526004016101c390610f80565b60405180910390fd5b600260003373ffffffffffffffffffffffffffffffffffffffff1673ffffffffffffffffffffffffffffffffffffffff1681526020019081526020016000205481111561024e576040517f08c379a000000000000000000000000000000000000000000000000000000000815260040161024590610f20565b60405180910390fd5b61029b3382600160009054906101000a900473ffffffffffffffffffffffffffffffffffffffff1673ffffffffffffffffffffffffffffffffffffffff1661077e9092919063ffffffff16565b80600260003373ffffffffffffffffffffffffffffffffffffffff1673ffffffffffffffffffffffffffffffffffffffff168152602001908152602001600020546102e691906110a3565b600260003373ffffffffffffffffffffffffffffffffffffffff1673ffffffffffffffffffffffffffffffffffffffff168152602001908152602001600020819055508060035461033791906110a3565b6003819055503373ffffffffffffffffffffffffffffffffffffffff167f0f5bb82176feb1b5e747e28471aa92156a04d9f3ab9f45f28e2d704232b93f75826040516103839190611000565b60405180910390a2600160008190555050565b6000600354905090565b6000600260008373ffffffffffffffffffffffffffffffffffffffff1673ffffffffffffffffffffffffffffffffffffffff168152602001908152602001600020549050919050565b6002600054141561042f576040517f08c379a000000000000000000000000000000000000000000000000000000000815260040161042690610fe0565b60405180910390fd5b60026000819055506000811161047a576040517f08c379a000000000000000000000000000000000000000000000000000000000815260040161047190610f40565b60405180910390fd5b6000600160009054906101000a900473ffffffffffffffffffffffffffffffffffffffff1673ffffffffffffffffffffffffffffffffffffffff166370a08231306040518263ffffffff1660e01b81526004016104d79190610e83565b60206040518083038186803b1580156104ef57600080fd5b505afa158015610503573d6000803e3d6000fd5b505050506040513d601f19601f820116820180604052508101906105279190610cc6565b9050610578333084600160009054906101000a900473ffffffffffffffffffffffffffffffffffffffff1673ffffffffffffffffffffffffffffffffffffffff16610804909392919063ffffffff16565b600081600160009054906101000a900473ffffffffffffffffffffffffffffffffffffffff1673ffffffffffffffffffffffffffffffffffffffff166370a08231306040518263ffffffff1660e01b81526004016105d69190610e83565b60206040518083038186803b1580156105ee57600080fd5b505afa158015610602573d6000803e3d6000fd5b505050506040513d601f19601f820116820180604052508101906106269190610cc6565b61063091906110a3565b905080600260003373ffffffffffffffffffffffffffffffffffffffff1673ffffffffffffffffffffffffffffffffffffffff1681526020019081526020016000205461067d919061104d565b600260003373ffffffffffffffffffffffffffffffffffffffff1673ffffffffffffffffffffffffffffffffffffffff16815260200190815260200160002081905550806003546106ce919061104d565b6003819055503373ffffffffffffffffffffffffffffffffffffffff167f9e71bc8eea02a63969f509818f2dafb9254532904319f9dbda79b67bd34a5f3d8260405161071a9190611000565b60405180910390a25050600160008190555050565b600061073a8261088d565b61074383610941565b61074d919061104d565b9050919050565b6000600160009054906101000a900473ffffffffffffffffffffffffffffffffffffffff16905090565b6107ff8363a9059cbb60e01b848460405160240161079d929190610ed5565b604051602081830303815290604052907bffffffffffffffffffffffffffffffffffffffffffffffffffffffff19166020820180517bffffffffffffffffffffffffffffffffffffffffffffffffffffffff838183161783525050505061098a565b505050565b610887846323b872dd60e01b85858560405160240161082593929190610e9e565b604051602081830303815290604052907bffffffffffffffffffffffffffffffffffffffffffffffffffffffff19166020820180517bffffffffffffffffffffffffffffffffffffffffffffffffffffffff838183161783525050505061098a565b50505050565b6000600160009054906101000a900473ffffffffffffffffffffffffffffffffffffffff1673ffffffffffffffffffffffffffffffffffffffff16635fc3a312836040518263ffffffff1660e01b81526004016108ea9190610e83565b60206040518083038186803b15801561090257600080fd5b505afa158015610916573d6000803e3d6000fd5b505050506040513d601f19601f8201168201806040525081019061093a9190610cc6565b9050919050565b6000600260008373ffffffffffffffffffffffffffffffffffffffff1673ffffffffffffffffffffffffffffffffffffffff168152602001908152602001600020549050919050565b60006109ec826040518060400160405280602081526020017f5361666545524332303a206c6f772d6c6576656c2063616c6c206661696c65648152508573ffffffffffffffffffffffffffffffffffffffff16610a519092919063ffffffff16565b9050600081511115610a4c5780806020019051810190610a0c9190610c74565b610a4b576040517f08c379a0000000000000000000000000000000000000000000000000000000008152600401610a4290610fc0565b60405180910390fd5b5b505050565b6060610a608484600085610a69565b90509392505050565b606082471015610aae576040517f08c379a0000000000000000000000000000000000000000000000000000000008152600401610aa590610f60565b60405180910390fd5b610ab785610b7d565b610af6576040517f08c379a0000000000000000000000000000000000000000000000000000000008152600401610aed90610fa0565b60405180910390fd5b6000808673ffffffffffffffffffffffffffffffffffffffff168587604051610b1f9190610e6c565b60006040518083038185875af1925050503d8060008114610b5c576040519150601f19603f3d011682016040523d82523d6000602084013e610b61565b606091505b5091509150610b71828286610b90565b92505050949350505050565b600080823b905060008111915050919050565b60608315610ba057829050610bf0565b600083511115610bb35782518084602001fd5b816040517f08c379a0000000000000000000000000000000000000000000000000000000008152600401610be79190610efe565b60405180910390fd5b9392505050565b600081359050610c06816112fd565b92915050565b600081519050610c1b81611314565b92915050565b600081359050610c308161132b565b92915050565b600081519050610c458161132b565b92915050565b600060208284031215610c5d57600080fd5b6000610c6b84828501610bf7565b91505092915050565b600060208284031215610c8657600080fd5b6000610c9484828501610c0c565b91505092915050565b600060208284031215610caf57600080fd5b6000610cbd84828501610c21565b91505092915050565b600060208284031215610cd857600080fd5b6000610ce684828501610c36565b91505092915050565b610cf8816110d7565b82525050565b6000610d098261101b565b610d138185611031565b9350610d2381856020860161111f565b80840191505092915050565b6000610d3a82611026565b610d44818561103c565b9350610d5481856020860161111f565b610d5d81611181565b840191505092915050565b6000610d75601d8361103c565b9150610d8082611192565b602082019050919050565b6000610d98600e8361103c565b9150610da3826111bb565b602082019050919050565b6000610dbb60268361103c565b9150610dc6826111e4565b604082019050919050565b6000610dde60108361103c565b9150610de982611233565b602082019050919050565b6000610e01601d8361103c565b9150610e0c8261125c565b602082019050919050565b6000610e24602a8361103c565b9150610e2f82611285565b604082019050919050565b6000610e47601f8361103c565b9150610e52826112d4565b602082019050919050565b610e6681611115565b82525050565b6000610e788284610cfe565b915081905092915050565b6000602082019050610e986000830184610cef565b92915050565b6000606082019050610eb36000830186610cef565b610ec06020830185610cef565b610ecd6040830184610e5d565b949350505050565b6000604082019050610eea6000830185610cef565b610ef76020830184610e5d565b9392505050565b60006020820190508181036000830152610f188184610d2f565b905092915050565b60006020820190508181036000830152610f3981610d68565b9050919050565b60006020820190508181036000830152610f5981610d8b565b9050919050565b60006020820190508181036000830152610f7981610dae565b9050919050565b60006020820190508181036000830152610f9981610dd1565b9050919050565b60006020820190508181036000830152610fb981610df4565b9050919050565b60006020820190508181036000830152610fd981610e17565b9050919050565b60006020820190508181036000830152610ff981610e3a565b9050919050565b60006020820190506110156000830184610e5d565b92915050565b600081519050919050565b600081519050919050565b600081905092915050565b600082825260208201905092915050565b600061105882611115565b915061106383611115565b9250827fffffffffffffffffffffffffffffffffffffffffffffffffffffffffffffffff0382111561109857611097611152565b5b828201905092915050565b60006110ae82611115565b91506110b983611115565b9250828210156110cc576110cb611152565b5b828203905092915050565b60006110e2826110f5565b9050919050565b60008115159050919050565b600073ffffffffffffffffffffffffffffffffffffffff82169050919050565b6000819050919050565b60005b8381101561113d578082015181840152602081019050611122565b8381111561114c576000848401525b50505050565b7f4e487b7100000000000000000000000000000000000000000000000000000000600052601160045260246000fd5b6000601f19601f8301169050919050565b7f494e535546464943454e5420544f4b454e5320544f20554e5354414b45000000600082015250565b7f43616e6e6f74207374616b652030000000000000000000000000000000000000600082015250565b7f416464726573733a20696e73756666696369656e742062616c616e636520666f60008201527f722063616c6c0000000000000000000000000000000000000000000000000000602082015250565b7f43616e6e6f7420556e5374616b65203000000000000000000000000000000000600082015250565b7f416464726573733a2063616c6c20746f206e6f6e2d636f6e7472616374000000600082015250565b7f5361666545524332303a204552433230206f7065726174696f6e20646964206e60008201527f6f74207375636365656400000000000000000000000000000000000000000000602082015250565b7f5265656e7472616e637947756172643a207265656e7472616e742063616c6c00600082015250565b611306816110d7565b811461131157600080fd5b50565b61131d816110e9565b811461132857600080fd5b50565b61133481611115565b811461133f57600080fd5b5056fea2646970667358221220e492bb5663e849bdb75469895106306456cf5e0a48d0648e1fd6a7bdacaa011964736f6c63430008040033",
  "immutableReferences": {},
  "source": "pragma solidity ^0.8.4;\n\n\nimport \"@openzeppelin/contracts/security/ReentrancyGuard.sol\";\n\nimport \"@openzeppelin/contracts/token/ERC20/utils/SafeERC20.sol\";\n\n\n/**\n* @dev Inteface for the token lock features in this contract\n*/\ninterface ITOKENLOCK {\n    /**\n     * @dev Emitted when the token lock is initialized  \n     * `tokenHolder` is the address the lock pertains to\n     *  `amountLocked` is the amount of tokens locked \n     *  `time` is the (initial) time at which tokens were locked\n     *  `unlockPeriod` is the time interval at which tokens become unlockedPerPeriod\n     *  `unlockedPerPeriod` is the amount of token unlocked earch unlockPeriod\n     */\n    event  NewTokenLock(address tokenHolder, uint256 amountLocked, uint256 time, uint256 unlockPeriod, uint256 unlockedPerPeriod);\n    /**\n     * @dev Emitted when the token lock is updated  to be more strict\n     * `tokenHolder` is the address the lock pertains to\n     *  `amountLocked` is the amount of tokens locked \n     *  `time` is the (initial) time at which tokens were locked\n     *  `unlockPeriod` is the time interval at which tokens become unlockedPerPeriod\n     *  `unlockedPerPeriod` is the amount of token unlocked earch unlockPeriod\n     */\n    event  UpdateTokenLock(address tokenHolder, uint256 amountLocked, uint256 time, uint256 unlockPeriod, uint256 unlockedPerPeriod);\n    \n    /**\n     * @dev Lock `baseTokensLocked_` held by the caller with `unlockedPerEpoch_` tokens unlocking each `unlockEpoch_`\n     *\n     *\n     * Emits an {NewTokenLock} event indicating the updated terms of the token lockup.\n     *\n     * Requires msg.sender to:\n     *\n     * - Must not be a prevoius lock for this address. If so, it must be first cleared with a call to {clearLock}.\n     * - Must have at least a balance of `baseTokensLocked_` to lock\n     * - Must provide non-zero `unlockEpoch_`\n     * - Must have at least `unlockedPerEpoch_` tokens to unlock \n     *  - `unlockedPerEpoch_` must be greater than zero\n     */\n    \n    function newTokenLock(uint256 baseTokensLocked_, uint256 unlockEpoch_, uint256 unlockedPerEpoch_) external;\n    \n    /**\n     * @dev Reset the lock state\n     *\n     * Requirements:\n     *\n     * - msg.sender must not have any tokens locked, currently\n     */\n    function clearLock() external;\n    \n    /**\n     * @dev Returns the amount of tokens that are unlocked i.e. transferrable by `who`\n     *\n     */\n    function balanceUnlocked(address who) external view returns (uint256 amount);\n    /**\n     * @dev Returns the amount of tokens that are locked and not transferrable by `who`\n     *\n     */\n    function balanceLocked(address who) external view returns (uint256 amount);\n\n    /**\n     * @dev Reduce the amount of token unlocked each period by `subtractedValue`\n     * \n     * Emits an {UpdateTokenLock} event indicating the updated terms of the token lockup.\n     * \n     * Requires: \n     *  - msg.sender must have tokens currently locked\n     *  - `subtractedValue` is greater than 0\n     *  - cannot reduce the unlockedPerEpoch to 0\n     *\n     *  NOTE: As a side effect resets the baseTokensLocked and lockTime for msg.sender \n     */\n    function decreaseUnlockAmount(uint256 subtractedValue) external;\n    /**\n     * @dev Increase the duration of the period at which tokens are unlocked by `addedValue`\n     * this will have the net effect of slowing the rate at which tokens are unlocked\n     * \n     * Emits an {UpdateTokenLock} event indicating the updated terms of the token lockup.\n     * \n     * Requires: \n     *  - msg.sender must have tokens currently locked\n     *  - `addedValue` is greater than 0\n     * \n     *  NOTE: As a side effect resets the baseTokensLocked and lockTime for msg.sender \n     */\n    function increaseUnlockTime(uint256 addedValue) external;\n    /**\n     * @dev Increase the number of tokens locked by `addedValue`\n     * i.e. locks up more tokens.\n     * \n     *      \n     * Emits an {UpdateTokenLock} event indicating the updated terms of the token lockup.\n     * \n     * Requires: \n     *  - msg.sender must have tokens currently locked\n     *  - `addedValue` is greater than zero\n     *  - msg.sender must have sufficient unlocked tokens to lock\n     * \n     *  NOTE: As a side effect resets the baseTokensLocked and lockTime for msg.sender \n     *\n     */\n    function increaseTokensLocked(uint256 addedValue) external;\n\n}\n\n\n\n\ncontract VotingPower is ReentrancyGuard{\n    IERC20 _token;\n    mapping (address => uint256) private _stakedTokens;\n    uint256 private _totalStaked;\n    \n    event Staked(address indexed user, uint256 amount);\n    event Unstaked(address indexed user, uint256 amount);\n    using SafeERC20 for IERC20;\n    \n    constructor(address token_){\n        _token = IERC20(token_);\n    }\n\n    /**\n    * @dev Returns the voting power for `who`\n    **/\n    function votingPower(address who) public view returns (uint256) {\n        return _votingPowerStaked(who) + _votingPowerLocked(who);\n    }\n\n    function _votingPowerStaked(address who) internal view returns (uint256) {\n        return _stakedTokens[who];\n    }\n\n    function _votingPowerLocked(address who) internal view returns (uint256) {\n        return ITOKENLOCK(address(_token)).balanceLocked(who);\n    }\n\n    /**\n    * @dev Stakes a certain amount of tokens, this will attempt to transfer the given amount from the caller.\n    * It will count the actual number of tokens trasferred as being staked\n    * MUST trigger Staked event.\n    **/\n    function stake(uint256 amount) public nonReentrant{\n        require(amount > 0, \"Cannot stake 0\");\n        uint256 previousAmount = IERC20(_token).balanceOf(address(this));\n        _token.safeTransferFrom( msg.sender, address(this), amount);\n        uint256 transferred = IERC20(_token).balanceOf(address(this)) - previousAmount;\n        _stakedTokens[msg.sender] = _stakedTokens[msg.sender] + transferred;\n        _totalStaked = _totalStaked + transferred;\n        emit Staked(msg.sender, transferred);\n    }\n\n    /**\n    * @dev Unstakes a certain amount of tokens, this SHOULD return the given amount of tokens to the caller, \n    * if unstaking is currently not possible the function MUST revert.\n    * MUST trigger Unstaked event.\n    */\n    function unstake(uint256 amount) public nonReentrant{\n        require(amount > 0, \"Cannot UnStake 0\");\n        require(amount <= _stakedTokens[msg.sender], \"INSUFFICENT TOKENS TO UNSTAKE\");\n        _token.safeTransfer( msg.sender, amount);\n        _stakedTokens[msg.sender] = _stakedTokens[msg.sender] - amount;\n        _totalStaked = _totalStaked - amount;\n        emit Unstaked(msg.sender, amount);\n    }\n\n    /**\n    * @dev Returns the current total of tokens staked for address addr.\n    */\n    function totalStakedBy(address addr) public view returns (uint256){\n        return _stakedTokens[addr];\n    }\n    /**\n    * @dev Returns the current total of tokens staked.\n    */\n    function totalStaked() public view returns (uint256){\n        return _totalStaked;\n    }\n    /**\n    * @dev Address of the token being used by the staking interface\n    */\n    function token() public view returns (address){\n        return address(_token);\n    }\n   \n    \n\n}\n",
  "sourcePath": "/Users/zilanouyang/Codes/staking-contract/contracts/VotingPower.sol",
  "compiler": {
    "name": "solc",
    "version": "0.8.4+commit.c7e474f2.Emscripten.clang"
  },
  "schemaVersion": "3.3.4",
  "updatedAt": "2021-06-27T19:25:07.800Z",
  "devdoc": {
    "kind": "dev",
    "methods": {
      "stake(uint256)": {
        "details": "Stakes a certain amount of tokens, this will attempt to transfer the given amount from the caller. It will count the actual number of tokens trasferred as being staked MUST trigger Staked event.*"
      },
      "token()": {
        "details": "Address of the token being used by the staking interface"
      },
      "totalStaked()": {
        "details": "Returns the current total of tokens staked."
      },
      "totalStakedBy(address)": {
        "details": "Returns the current total of tokens staked for address addr."
      },
      "unstake(uint256)": {
        "details": "Unstakes a certain amount of tokens, this SHOULD return the given amount of tokens to the caller,  if unstaking is currently not possible the function MUST revert. MUST trigger Unstaked event."
      },
      "votingPower(address)": {
        "details": "Returns the voting power for `who`*"
      }
    },
    "version": 1
  },
  "userdoc": {
    "kind": "user",
    "methods": {},
    "version": 1
  }
}